:100000000C9462000C94B9070C9492070C948A002B
:100010000C948A000C948A000C948A000C948A0038
:100020000C948A000C948A000C948A000C948A0028
:100030000C948A000C948A000C948A000C948A0018
:100040000C9448070C948A000C9416070C94F00644
:100050000C948A000C948A000C948A000C948A00F8
:100060000C948A000C948A000000000025002800EF
:100070002B000000000023002600290000000008DB
:10008000000201000003040700000000000000005F
:1000900000000000240027002A00010204081020AC
:1000A000408001020408102001020408102004040A
:1000B0000404040404040202020202020303030310
:1000C0000303BB0A11241FBECFEFD8E0DEBFCDBFB4
:1000D00011E0A0E0B1E0E8EDF8E102C005900D927A
:1000E000A239B107D9F722E0A2E9B1E001C01D921F
:1000F000A838B207E1F710E0C2E6D0E004C02197CB
:10010000FE010E943F0BC136D107C9F70E94E007EC
:100110000C946A0C0C9400008091E2019091E30130
:10012000DC01ED91FC910484F585E02D0994AF92FA
:10013000BF92CF92DF92EF92FF920F931F93CF93D4
:10014000DF936C017B018B01040F151FEB015E0136
:10015000AE18BF08C017D10759F06991D601ED91CB
:10016000FC910190F081E02DC6010995892B79F76A
:10017000C501DF91CF911F910F91FF90EF90DF901C
:10018000CF90BF90AF900895FC01538D448D252FE3
:1001900030E0842F90E0821B930B541710F0CF9621
:1001A000089501970895FC01918D828D981761F053
:1001B000A28DAE0FBF2FB11D5D968C91928D9F5F6A
:1001C0009F73928F90E008958FEF9FEF0895FC0149
:1001D000918D828D981731F0828DE80FF11D858DFC
:1001E00090E008958FEF9FEF0895FC01918D228D8F
:1001F000892F90E0805C9F4F821B91098F73992714
:10020000089587EE91E00E94F50021E0892B09F422
:1002100020E0822F089580E090E0892B29F00E9451
:10022000010181110C9400000895FC01A48DA80F18
:10023000B92FB11DA35ABF4F2C91848D90E0019628
:100240008F739927848FA689B7892C93A089B18948
:100250008C91837080648C93938D848D981306C0E9
:100260000288F389E02D80818F7D80830895EF924D
:10027000FF920F931F93CF93DF93EC0181E0888F60
:100280009B8D8C8D98131AC0E889F989808185FF30
:1002900015C09FB7F894EE89FF896083E889F989D2
:1002A00080818370806480839FBF81E090E0DF91D4
:1002B000CF911F910F91FF90EF900895F62E0B8D27
:1002C00010E00F5F1F4F0F731127E02E8C8D8E11E2
:1002D0000CC00FB607FCFACFE889F989808185FF49
:1002E000F5CFCE010E941501F1CFEB8DEC0FFD2F64
:1002F000F11DE35AFF4FF0829FB7F8940B8FEA8904
:10030000FB8980818062CFCFCF93DF93EC01888D12
:100310008823B9F0AA89BB89E889F9898C9185FD80
:1003200003C0808186FD0DC00FB607FCF7CF8C910E
:1003300085FFF2CF808185FFEDCFCE010E941501B0
:10034000E9CFDF91CF910895833081F028F4813097
:1003500099F08230A9F008958730A9F08830C9F06B
:100360008430B1F4809180008F7D03C08091800043
:100370008F7780938000089584B58F7784BD08952A
:1003800084B58F7DFBCF8091B0008F778093B000D4
:1003900008958091B0008F7DF9CFCF93DF93282F00
:1003A00030E0F901E458FF4F8491F901E656FF4F20
:1003B000D491F901E255FF4FC491CC23A1F08111F2
:1003C0000E94A401EC2FF0E0EE0FFF1FEE58FF4F4C
:1003D000A591B491EC91ED2381E090E009F480E0E7
:1003E000DF91CF91089580E090E0FACF1F93CF93F3
:1003F000DF93282F30E0F901E458FF4F8491F90191
:10040000E656FF4FD491F901E255FF4FC491CC233A
:10041000A9F0162F81110E94A401EC2FF0E0EE0F3D
:10042000FF1FE859FF4FA591B4918FB7F894EC9155
:10043000111108C0D095DE23DC938FBFDF91CF91DF
:100440001F910895DE2BF8CFCF93DF9390E0FC014E
:10045000E656FF4F249182559F4FFC0184918823DB
:10046000C9F090E0880F991FFC01E057FF4FA5915C
:10047000B491FC01E859FF4FC591D49161110DC0B1
:100480009FB7F8948C91209582238C9388812823A0
:1004900028839FBFDF91CF910895623051F49FB7B9
:1004A000F8943C91822F809583238C93E8812E2BA6
:1004B000EFCF8FB7F894EC912E2B2C938FBFEACF10
:1004C0008E3008F08E508770806480937C0080911D
:1004D0007A00806480937A0080917A0086FDFCCF58
:1004E000809178009091790008952FB7F8946091E9
:1004F000DD017091DE018091DF019091E0012FBF5D
:1005000008950895CF93DF93EC0161E08A810E9402
:10051000F60189858CBD8A858DBD7894DF91CF9158
:100520000895FC01F8948CB581878DB582878CB5D0
:10053000837F8CBD8CB58F7D8CBD8CB58C7F8CBD45
:100540008DB58E7F8DBD60E082810C94F601F894AC
:100550002091E401233071F42091D701222351F03E
:10056000DC01ED91FC910488F589E02D61E00995AD
:1005700081E008952091E401233019F4789480E01B
:100580000895DC01ED91FC910288F389E02D099535
:10059000F6CF3F924F925F926F927F928F929F928F
:1005A000AF92BF92CF92DF92EF92FF920F931F9381
:1005B000CF93DF93EC01162F5A01922E802E312C0F
:1005C000CE2CD12CF12CE12CE881F9810190F08125
:1005D000E02D01E0292DA501612FCE0109950E9492
:1005E00075022B013C010E94750264197509860988
:1005F00097096C157D058E059F0528F5E881F98121
:100600000480F581E02DCE010995882361F3909156
:10061000D501191711F01F3F31F79091D20199239D
:1006200011F3DF91CF911F910F91FF90EF90DF9029
:10063000CF90BF90AF909F908F907F906F905F9082
:100640004F903F9008953394831408F0BDCF80E01D
:10065000E8CF8EBD00000DB407FEFDCF8EB5089526
:100660000F931F93CF93DF93EC01062F142FE88194
:10067000F981008CF18DE02D0995802F80680E9412
:100680002903812F0E942903E881F981028CF38DCF
:10069000E02DCE01DF91CF911F910F9109941F930F
:1006A000CF93DF93EC01162F45E561114DE56AE527
:1006B000CE010E94300340E711114CE76CE5CE01FA
:1006C000DF91CF911F910C9430031F93CF93DF9351
:1006D000EC01162FE881F981008CF18DE02D099550
:1006E000812F0E94290380E00E942903182FE881AE
:1006F000F981028CF38DE02DCE010995812FDF91D8
:10070000CF911F910895CF93DF93EC0168874AE161
:1007100061114FE063E1CE010E9430038885882398
:1007200069F061E1CE010E9465038F71482F406638
:1007300061E1CE01DF91CF910C9430034F8140688D
:10074000F7CFCF93DF93EC011092D6011092D50131
:100750001092D4011092D7011092D3011092D201BD
:100760001092D1011092D00168E20E94650382FFCD
:100770000AC06DE3CE010E946503482F44606DE31B
:10078000CE010E94300340E465E2CE010E943003B6
:10079000E881F9810488F589E02D63E0CE01DF91DD
:1007A000CF910994CF93DF93EC01603208F06FE1B1
:1007B0006F838885882311F066956F8361E1CE0190
:1007C0000E946503807E4F81482B61E1CE01DF915D
:1007D000CF910C9430031F93CF93DF932091E401CA
:1007E000261761F0162FEC01623009F445C050F471
:1007F000662309F453C0613009F449C0DF91CF91F9
:100800001F910895633021F16430C1F761E00E94C7
:100810006503837E482F4C6061E0CE010E94300367
:100820008885882341F0E881F9810688F789E02DE1
:1008300061E0CE0109958091E401811106C067E273
:10084000CE010E94650387FFF6CF1093E401D6CF57
:1008500061E00E946503837E482F406161E0CE0124
:100860000E9430038885882331F3E881F981068866
:10087000F789E02D60E0DDCF61E00E946503837EB3
:10088000482F486061E0CE010E943003D4CF61E080
:100890000E946503837E482F4460F4CF61E00E948C
:1008A0006503482F437EEECFCF92DF92EF92FF9207
:1008B0000F931F93CF93DF93EC01F62ED42EC52E0A
:1008C000122FE881F9810488F589E02D61E009950E
:1008D00067E2CE010E94650387FFFACF40E065E240
:1008E000CE010E9430031E3308F01DE3E11027C043
:1008F000002339F100E4E881F981008CF18DE02DCD
:10090000CE01099580E80E94290383E0810F0E94AF
:1009100029038F2D0E9429038D810E942903802F96
:100920000E9429030D2DED2CFC2C8E2D801B811790
:1009300050F4F70181917F010E942903F6CF00E86E
:10094000DACF00E0D8CFE881F981028CF38DE02D79
:10095000CE010995E881F9810488F589E02D64E0EC
:10096000CE0109950E9475026B017C018B810E946A
:10097000CD01892B59F40E9475026C197D098E09ED
:100980009F09683E73408105910580F3E881F981F4
:100990000488F589E02D61E0CE01DF91CF911F91B0
:1009A0000F91FF90EF90DF90CF9009940895FC0194
:1009B00001900020E9F73197AF01481B590BBC01AA
:1009C00087EE91E00C949700CF93DF930E94D704B9
:1009D000EC018CE391E00E94D7048C0F9D1FDF9106
:1009E000CF910895CF93DF93CDB7DEB7A1970FB620
:1009F000F894DEBF0FBECDBF19A2805D88A3CE01E3
:100A000080960E94D704A1960FB6F894DEBF0FBE61
:100A1000CDBFDF91CF910895CF93DF932091E40173
:100A2000233021F080E0DF91CF9108952091D7010C
:100A30002111F8CFEC0164E20E94650390E09195EA
:100A4000819591098C349F4F6CF7E881F981048876
:100A5000F589E02D61E0CE01099581E0E4CF4F9268
:100A60005F926F927F92AF92BF92CF92DF92EF929E
:100A7000FF920F931F93CF93DF93EC015B01F42E52
:100A80001092D3011091D501C090D001D090D10126
:100A90006DE30E946503482F44606DE3CE010E9420
:100AA00030030E9475022B013C01CE010E940C050F
:100AB000811113C00E94750264197509860997098E
:100AC000683E73408105910540F4E881F981048016
:100AD000F581E02DCE010995E8CF1093D501E8818D
:100AE000F9810088F189E02DEE24E39400E02F2DB8
:100AF000A501612FCE010995D092D101C092D001FC
:100B0000DF91CF911F910F91FF90EF90DF90CF90E9
:100B1000BF90AF907F906F905F904F9008958F92AD
:100B20009F92AF92BF92CF92DF92EF92FF920F937C
:100B30001F93CF93DF93EC01162F6A01F22E6DE322
:100B40000E946503482F44606DE3CE010E9430038C
:100B50000E9475024B015C01CE010E940C058111BF
:100B600013C00E947502681979098A099B09683EB9
:100B700073408105910540F4E881F9810480F58195
:100B8000E02DCE010995E8CFE881F9810088F1894F
:100B9000E02DE12C2F2DA601612FCE010995DF91CB
:100BA000CF911F910F91FF90EF90DF90CF90BF906A
:100BB000AF909F908F9008959F92AF92BF92CF92E7
:100BC000DF92EF92FF920F931F93CF93DF93CDB7F6
:100BD000DEB7EE970FB6F894DEBF0FBECDBF6C0147
:100BE0008B017A01DB01FE013196CA01860F971F46
:100BF0009E2EAF2E2D912193A817B907D9F78FE319
:100C000091E00E94D70481E090E00E94F20480E528
:100C100091E00E94D704B12C8B2D90E08E159F059A
:100C200054F4800F911FFC01608187EE91E00E94D7
:100C30003701B394F1CF8CE591E00E94E40400E029
:100C40002E2D492D5A2D61E0C6010E948F05EE968A
:100C50000FB6F894DEBF0FBECDBFDF91CF911F91CD
:100C60000F91FF90EF90DF90CF90BF90AF909F904B
:100C70000895EF92FF921F93CF93DF93EC01809141
:100C8000E401833009F098C068E2CE010E94650358
:100C900082FF92C0E881F9810488F589E02D61E046
:100CA000CE010995E881F981008CF18DE02DCE010E
:100CB000099580E00E94290380E00E942903809327
:100CC000D7018091D701833408F046C08091D701C5
:100CD0008093D70180E00E9429038093D4018E8104
:100CE000811109C08091D4019D81981721F08091D4
:100CF000D4018F3F99F58091D701833078F18091AD
:100D0000D70183508093D60180E00E94290380930D
:100D1000D50180E00E942903982F90789093D2010A
:100D2000982F90749093D301E881F9810684F78518
:100D3000E02D682FCE01099510E08091D60118179B
:100D400010F5E12EF12C80E00E942903F701ED5609
:100D5000FE4F80831F5FF1CF82E4BACF1092D7019C
:100D6000E881F981028CF38DE02DCE010995E881AF
:100D7000F9810288F389E02DCE01DF91CF911F9197
:100D8000FF90EF9009948091D6018D3330F4E0917B
:100D9000D601F0E0ED56FE4F1082E881F981028C19
:100DA000F38DE02DCE010995E881F9810488F5895C
:100DB000E02D63E0CE01099564E2CE010E94650357
:100DC00090E0919581959109959587959093D101A2
:100DD0008093D001DF91CF911F91FF90EF90089504
:100DE0001F920F920FB60F9211242F933F934F93A0
:100DF0005F936F937F938F939F93AF93BF93EF9383
:100E0000FF9387EE91E00E941501FF91EF91BF9152
:100E1000AF919F918F917F916F915F914F913F9192
:100E20002F910F900FBE0F901F9018951F920F9249
:100E30000FB60F9211242F938F939F93EF93FF93ED
:100E4000E091F701F091F8018081E091FD01F091CE
:100E5000FE0182FD1BC09081809100028F5F8F7325
:100E600020910102821741F0E0910002F0E0E95187
:100E7000FE4F958F80930002FF91EF919F918F918C
:100E80002F910F900FBE0F901F9018958081F4CF77
:100E90001F920F920FB60F9211242F933F938F93AF
:100EA0009F93AF93BF938091DD019091DE01A0915C
:100EB000DF01B091E0013091DC0123E0230F2D37F9
:100EC00058F50196A11DB11D2093DC018093DD0131
:100ED0009093DE01A093DF01B093E0018091D801EF
:100EE0009091D901A091DA01B091DB010196A11D89
:100EF000B11D8093D8019093D901A093DA01B093EA
:100F0000DB01BF91AF919F918F913F912F910F90F6
:100F10000FBE0F901F90189526E8230F0296A11D73
:100F2000B11DD2CF1F920F920FB60F9211242F93A3
:100F30003F934F935F936F937F938F939F93AF9361
:100F4000BF93EF93FF93E0910201F09103010995A4
:100F5000FF91EF91BF91AF919F918F917F916F9191
:100F60005F914F913F912F910F900FBE0F901F9067
:100F700018951F920F920FB60F9211242F933F9343
:100F80004F935F936F937F938F939F93AF93BF9391
:100F9000EF93FF93E0910001F09101010995FF911A
:100FA000EF91BF91AF919F918F917F916F915F91E1
:100FB0004F913F912F910F900FBE0F901F9018955A
:100FC000CF93DF93CDB7DEB7AE970FB6F894DEBF01
:100FD0000FBECDBF789484B5826084BD84B5816036
:100FE00084BD85B5826085BD85B5816085BD8091F4
:100FF0006E00816080936E0010928100809181006C
:101000008260809381008091810081608093810063
:10101000809180008160809380008091B100846025
:101020008093B1008091B00081608093B000809186
:101030007A00846080937A0080917A008260809345
:101040007A0080917A00816080937A0080917A00A2
:10105000806880937A001092C100E091F701F091CE
:10106000F80152E0D52ED082E091F301F091F40125
:101070001082E091F501F091F6018FEC80831092DF
:10108000FF01E091FB01F091FC0166E0B62EB08219
:10109000E091F901F091FA01808180618083E09113
:1010A000F901F091FA01808188608083E091F90173
:1010B000F091FA01808180688083E091F901F091DC
:1010C000FA0180818F7D80838EE591E00E94E404A7
:1010D00088E190E00E94450B7C018AE090E0D70116
:1010E00011969C938E9388E790E013969C938E9331
:1010F000129715961C921E92149782E190E0179613
:101100009C938E93169783E190E019969C938E930F
:10111000189784E090E01B969C938E931A9760E05A
:1011200082E10E94240260E0F70180850E9424028F
:1011300062E0D7011A968C910E9424028BE090E025
:101140000E94450B8C0180E291E0F801918380833D
:101150008AE08283D3821482AA24A394A092E40119
:1011600016828FE1878310868AE691E00E94D70479
:1011700082E090E00E94F20480E791E00E94E404A3
:10118000FE0133968CE2DF011D928A95E9F7A98270
:1011900094E09A83DB8283E08D83DE829F8320E468
:1011A000288795E099878A87BB8683E38C8787E0C9
:1011B0008D8798E09F8799E0998B99E19B8B92E4CA
:1011C0009C8B35E23D8B2E8B26E22F8B888F88E21D
:1011D000898F80E18A8F89E28B8F8CED8C8F8EE2F4
:1011E0008D8F88E88E8F8FE28F8F8DE288A380E3CA
:1011F00089A327E32BA320E92CA328E32DA39EA3F7
:101200009CE39FA39FE898A79DE399A792E19AA7E3
:101210009FE69BA78CA78FEF8DA784EE8E8780EC2F
:10122000888B8EE18AA361E0F80182810E94F60139
:1012300061E0D80112968C910E942402DFB6F894E6
:101240008091E101811127C0E8EBF0E08491E4EAAC
:10125000F0E09491E82FF0E0EE0FFF1FE057FF4F12
:10126000A591B491EC91E92321F461E08AE00E9418
:10127000F60161E08AE00E9424028CB580618CBD99
:101280008CB580648CBD61E08DE00E94240261E039
:101290008BE00E9424028091E1018F5F8093E10145
:1012A000DFBE0E9475024B015C014AEA6FE2C80191
:1012B0000E9430036FE2C8010E9465038A3A59F028
:1012C0000E947502681979098A099B0962337105C0
:1012D0008105910550F30E9475024B015C0145E5C3
:1012E0006FE2C8010E9430036FE2C8010E946503EB
:1012F0008535A1F4D12CED2DF0E0EE0FFF1F81E03C
:1013000090E08C0F9D1FE80FF91F60816F3F91F0F7
:101310004181C8010E943003D394EDCF0E94750231
:10132000681979098A099B0962337105810591055C
:10133000B0F2E0CFD801ED91FC910488F589E02D61
:1013400061E0C80109956DE3C8010E946503482F5B
:101350004E7F6DE3C8010E943003F8016085C8012B
:101360000E94830361E0C8010E94EB030E947502A2
:101370004B015C0167E2C8010E94650387FD0BC059
:101380000E947502681979098A099B0962337105FF
:101390008105910578F30E947502681979098A0917
:1013A0009B096233710581059105F8F4D801149603
:1013B0008C91823098F4E82FF0E0EE0FFF1FE050A0
:1013C000FF4F2CE830E031832083813009F46BC07B
:1013D00080916900836080936900E89A1093E3012B
:1013E0000093E20182E0F801858361E0C8010E9478
:1013F0008303D70115961C930E931497F092E60180
:10140000E092E50188248A9483E0982EA12CB12CE7
:1014100090E0E92E90E0F92E0091E5011091E601AF
:10142000F80186810E94600224EB30E0DC010E941A
:10143000380BA50194010E94E80AD8011D963C933F
:101440002E931C9718968C910E94600224EB30E03A
:10145000DC010E94380BA50194010E94E80AF80102
:101460003787268782850E94CD01D80151969C93AB
:101470008E9350971C966D917C911D974D915C9128
:10148000119764177507B4F454962D913C915597B4
:10149000241735077CF044E050E067E771E01496CC
:1014A0008D919C9118C0809169008C608093690037
:1014B000E99A94CFF801228133812617370734F552
:1014C00064897589261737070CF142E050E06CE714
:1014D00071E0848195810E94DC05F8018089918901
:1014E000938B828B86859785978B868B8485958554
:1014F000958B848BE114F10409F48ECF0E940101D5
:10150000882309F489CF0E94000086CFD8011E9657
:101510006D917C911F976417750764F45696ED9151
:10152000FC915797E417F5072CF045E050E06FE782
:1015300071E0B5CF261737075CF4F8014689578963
:10154000241735072CF044E050E065E871E0C1CF86
:10155000892B19F6D80152968D919C91539701973A
:1015600009F0BBCF53961C921E92529746E050E072
:101570006AE871E094CFE7EEF1E01382128288EE20
:1015800093E0A0E0B0E084839583A683B7838EE0E8
:1015900091E09183808385EC90E09587848784EC4B
:1015A00090E09787868780EC90E0918B808B81EC30
:1015B00090E0938B828B82EC90E0958B848B86EC11
:1015C00090E0978B868B118E128E138E148E089559
:1015D000052E97FB1EF400940E94FF0A57FD07D0CA
:1015E0000E94070B07FC03D04EF40C94FF0A5095A1
:1015F0004095309521953F4F4F4F5F4F08959095FF
:101600008095709561957F4F8F4F9F4F0895A1E210
:101610001A2EAA1BBB1BFD010DC0AA1FBB1FEE1F6C
:10162000FF1FA217B307E407F50720F0A21BB30BB7
:10163000E40BF50B661F771F881F991F1A9469F733
:1016400060957095809590959B01AC01BD01CF018F
:101650000895A29FB001B39FC001A39F700D811D8B
:101660001124911DB29F700D811D1124911D0895AB
:101670000E94290BB7FF0895821B930B0895EE0F6C
:10168000FF1F0590F491E02D09940F931F93CF93C2
:10169000DF938230910510F482E090E0E0918602C1
:1016A000F091870230E020E0B0E0A0E0309799F4BC
:1016B0002115310509F44AC0281B390B24303105A6
:1016C000D8F58A819B816115710589F1FB019383AE
:1016D0008283FE0111C0408151810281138148172C
:1016E0005907E0F04817590799F4109761F01296DE
:1016F0000C93129713961C933296CF01DF91CF91E2
:101700001F910F9108950093860210938702F4CFE2
:101710002115310551F04217530738F0A901DB01BB
:101720009A01BD01DF01F801C1CFEF01F9CF90931C
:10173000870280938602CDCFFE01E20FF31F8193D3
:1017400091932250310939832883D7CF2091840285
:1017500030918502232B41F420910601309107013D
:101760003093850220938402209104013091050179
:101770002115310541F42DB73EB740910801509134
:101780000901241B350BE0918402F0918502E217D8
:10179000F307A0F42E1B3F0B2817390778F0AC0194
:1017A0004E5F5F4F2417350748F04E0F5F1F509371
:1017B000850240938402819391939FCFF0E0E0E013
:1017C0009CCFCF93DF930097E9F0FC01329713820F
:1017D0001282A0918602B0918702ED0130E020E0F4
:1017E0001097A1F420813181820F931F20918402F0
:1017F000309185022817390709F061C0F0938502FE
:10180000E0938402DF91CF910895EA01CE17DF07BC
:10181000E8F54A815B819E0141155105B1F7E90167
:10182000FB83EA8349915991C40FD51FEC17FD073B
:1018300061F4808191810296840F951FE90199835B
:101840008883828193819B838A83F0E0E0E0129613
:101850008D919C9113970097B9F52D913C9111971B
:10186000CD010296820F931F209184023091850250
:101870002817390739F6309751F5109287021092E0
:101880008602B0938502A0938402BCCFD383C28327
:1018900040815181840F951FC817D90761F44E5FAD
:1018A0005F4F88819981480F591F518340838A81F6
:1018B0009B81938382832115310509F0B0CFF0938A
:1018C0008702E09386029ECFFD01DC01C0CF138228
:0818D0001282D7CFF894FFCF7C
:1018D80081028102000088028000000000003701B8
:1018E8009700C4008401F500D300E7000000000061
:1018F8008F05C902A7022F058303D2033906D60430
:101908005404A103EB034F03910282020D0A0073F2
:10191800656E64696E6720746F206E6F6465200061
:101928002C206D657373616765205B005D00626FD5
:101938006F74696E6720757021004E6F64652000B2
:1019480020726561647900646F776E00757000724B
:1019580069676874006C6566740073656C656374A8
:0219680000007D
:107E0000112484B714BE81FFF0D085E080938100F7
:107E100082E08093C00088E18093C10086E0809377
:107E2000C20080E18093C4008EE0C9D0259A86E02C
:107E300020E33CEF91E0309385002093840096BBD3
:107E4000B09BFECF1D9AA8958150A9F7CC24DD24C4
:107E500088248394B5E0AB2EA1E19A2EF3E0BF2EE7
:107E6000A2D0813461F49FD0082FAFD0023811F036
:107E7000013811F484E001C083E08DD089C08234E0
:107E800011F484E103C0853419F485E0A6D080C0E4
:107E9000853579F488D0E82EFF2485D0082F10E0AE
:107EA000102F00270E291F29000F111F8ED06801E7
:107EB0006FC0863521F484E090D080E0DECF843638
:107EC00009F040C070D06FD0082F6DD080E0C81688
:107ED00080E7D80618F4F601B7BEE895C0E0D1E017
:107EE00062D089930C17E1F7F0E0CF16F0E7DF06D8
:107EF00018F0F601B7BEE89568D007B600FCFDCFD4
:107F0000A601A0E0B1E02C9130E011968C91119780
:107F100090E0982F8827822B932B1296FA010C0160
:107F200087BEE89511244E5F5F4FF1E0A038BF0790
:107F300051F7F601A7BEE89507B600FCFDCF97BE46
:107F4000E89526C08437B1F42ED02DD0F82E2BD052
:107F50003CD0F601EF2C8F010F5F1F4F84911BD097
:107F6000EA94F801C1F70894C11CD11CFA94CF0C13
:107F7000D11C0EC0853739F428D08EE10CD085E9AC
:107F80000AD08FE07ACF813511F488E018D01DD067
:107F900080E101D065CF982F8091C00085FFFCCF94
:107FA0009093C60008958091C00087FFFCCF809118
:107FB000C00084FD01C0A8958091C6000895E0E648
:107FC000F0E098E1908380830895EDDF803219F02E
:107FD00088E0F5DFFFCF84E1DECF1F93182FE3DFCA
:107FE0001150E9F7F2DF1F91089580E0E8DFEE27F6
:047FF000FF270994CA
:027FFE00040479
:0400000300007E007B
:00000001FF
