:100000000C9462000C94A00C0C94790C0C948A0053
:100010000C948A000C948A000C948A000C948A0038
:100020000C948A000C948A000C948A000C948A0028
:100030000C948A000C948A000C948A000C948A0018
:100040000C942F0C0C948A000C94FD0B0C94D70B81
:100050000C948A000C948A000C948A000C948A00F8
:100060000C94C70C0C948A000000000023002600AA
:10007000290000000008000201000003040700003E
:1000800000000000000000000000250028002B00F8
:1000900000000000240027002A00040404040404D3
:1000A0000404020202020202030303030303010227
:1000B00004081020408001020408102001020408F6
:1000C0001020E60D11241FBECFEFD8E0DEBFCDBF5C
:1000D00012E0A0E0B1E0E6E0F3E302C005900D928B
:1000E000A036B107D9F724E0A0E6B2E001C01D9226
:1000F000AD31B207E1F710E0C2E6D0E004C02197CD
:10010000FE010E945618C136D107C9F70E941F0E82
:100110000C9481190C9400008CB58C7F8CBD8DB52E
:100120008E7F8DBD089590E0FC01E255FF4F249134
:1001300086569F4FFC018491882399F090E0880FA8
:10014000991FFC01E057FF4FA591B491FC01EA57BC
:10015000FF4F859194918FB7F894EC91E22BEC933B
:100160008FBF08958091B7029091B802DC01ED91A4
:10017000FC910484F585E02D099408950895AF92CB
:10018000BF92CF92DF92EF92FF920F931F93CF9384
:10019000DF936C017B018B01040F151FEB015E01E6
:1001A000AE18BF08C017D10759F06991D601ED917B
:1001B000FC910190F081E02DC6010995892B79F71A
:1001C000C501DF91CF911F910F91FF90EF90DF90CC
:1001D000CF90BF90AF900895FC01538D448D252F93
:1001E00030E0842F90E0821B930B541710F0CF96D1
:1001F000089501970895FC01918D828D981761F003
:10020000A28DAE0FBF2FB11D5D968C91928D9F5F19
:100210009F73928F90E008958FEF9FEF0895FC01F8
:10022000918D828D981731F0828DE80FF11D858DAB
:1002300090E008958FEF9FEF0895FC01918D228D3E
:10024000892F90E0805C9F4F821B91098F739927C3
:10025000089580E793E00E941D0121E0892B09F4B5
:1002600020E0822F089580E090E0892B29F00E9401
:10027000290181110C9400000895FC01A48DA80FA0
:10028000B92FB11DA35ABF4F2C91848D90E00196D8
:100290008F739927848FA689B7892C93A089B189F8
:1002A0008C91837080648C93938D848D981306C099
:1002B0000288F389E02D80818F7D80830895EF92FD
:1002C000FF920F931F93CF93DF93EC0181E0888F10
:1002D0009B8D8C8D98131AC0E889F989808185FFE0
:1002E00015C09FB7F894EE89FF896083E889F98982
:1002F00080818370806480839FBF81E090E0DF9184
:10030000CF911F910F91FF90EF900895F62E0B8DD6
:1003100010E00F5F1F4F0F731127E02E8C8D8E1191
:100320000CC00FB607FCFACFE889F989808185FFF8
:10033000F5CFCE010E943D01F1CFEB8DEC0FFD2FEB
:10034000F11DE35AFF4FF0829FB7F8940B8FEA89B3
:10035000FB8980818062CFCFCF93DF93EC01888DC2
:100360008823B9F0AA89BB89E889F9898C9185FD30
:1003700003C0808186FD0DC00FB607FCF7CF8C91BE
:1003800085FFF2CF808185FFEDCFCE010E943D0138
:10039000E9CFDF91CF910895833081F028F4813047
:1003A00099F08230A9F008958730A9F08830C9F01B
:1003B0008430B1F4809180008F7D03C080918000F3
:1003C0008F7780938000089584B58F7784BD0895DA
:1003D00084B58F7DFBCF8091B0008F778093B00084
:1003E00008958091B0008F7DF9CF1F93CF93DF9355
:1003F000282F30E0F901EE58FF4F8491F901E255C2
:10040000FF4FD491F901E656FF4FC491CC23A9F0D8
:10041000162F81110E94CC01EC2FF0E0EE0FFF1F90
:10042000EA57FF4FA591B4918FB7F894EC91111151
:1004300008C0D095DE23DC938FBFDF91CF911F9151
:100440000895DE2BF8CF1F93CF93DF93182FEB0186
:100450000E949300209739F460E0812FDF91CF91C3
:100460001F910C94F501CF3FD10511F461E0F5CF58
:10047000E12FF0E0EE58FF4FE491E33031F140F42A
:10048000E130B1F0E230E1F0C038D1057CF7E4CFE3
:10049000E73029F1E83059F1E430B1F7809180007C
:1004A000806280938000D0938B00C0938A0004C048
:1004B00084B5806884BDC7BDDF91CF911F91089539
:1004C00084B5806284BDC8BDF7CF8091800080680C
:1004D00080938000D0938900C0938800EDCF8091F5
:1004E000B00080688093B000C093B300E5CF8091E6
:1004F000B00080628093B000C093B400DDCF3FB7FE
:10050000F8948091AD029091AE02A091AF02B091AB
:10051000B00226B5A89B05C02F3F19F00196A11D7A
:10052000B11D3FBFBA2FA92F982F8827BC01CD013D
:10053000620F711D811D911D42E0660F771F881F9C
:10054000991F4A95D1F708952FB7F8946091A902A1
:100550007091AA028091AB029091AC022FBF0895D6
:100560000895CF93CFB7F8948091A702811124C04A
:10057000E4EAF0E08491E8EBF0E09491E82FF0E019
:10058000EE0FFF1FE057FF4FA591B491EC91E923C7
:1005900021F461E08AE00E94F5018AE00E94930064
:1005A0008CB580618CBD8CB580648CBD8DE00E9463
:1005B00093008BE00E9493008091A7028F5F80934D
:1005C000A702CFBFCF91089520918402260F332731
:1005D000331F21323105ECF420914603FC0190E0F9
:1005E00080E0243069F082E00895A0918402219196
:1005F000AC014C595D4FA40FB52FB11D2C93019642
:10060000861798F380918402680F6093840280E0DB
:10061000089581E008951092460381E08093450398
:100620001092200361E082E10E94F50161E083E124
:100630000E94F501E9EBF0E080818E7F808380816C
:100640008D7F808388E48093B80085E48093BC002C
:100650000895CF93DF9391E0909363028823B9F0DC
:10066000C091B800D091BA008091BC008A7B809381
:10067000BC0060E082E10E94F50160E083E10E943D
:10068000F5010E940B03D093BA00C093B800DF912C
:10069000CF9108958F929F92AF92BF92CF92DF92A7
:1006A000EF92FF920F931F93CF93DF93D0916F033D
:1006B000D13208F0D7C0182FC0916E030E947F027C
:1006C0006B017C018091460381116BC082E08093B5
:1006D0004603109345038FEF809344031092430326
:1006E000D0934203AEE4B3E0E2E2F3E080E0D8135B
:1006F00091C01092210380912103CC0FC82BC0938D
:10070000210380912003813009F088C010922003DA
:100710000E947F026B017C01809121038093BB00CA
:100720008091480390914903A0914A03B0914B03F3
:10073000892B8A2B8B2BA1F00E947F02009148030A
:100740001091490320914A0330914B036C197D09A4
:100750008E099F09061717072807390708F442C0B2
:100760008091BC0083FDD8CF85EC8093BC000E94B3
:100770007F026B017C0180914603823009F450C0F6
:10078000809144038F3F09F46FC08091440380320D
:1007900009F46CC080914403803309F469C084E09B
:1007A00026C08091480390914903A0914A03B091DB
:1007B0004B03892B8A2B8B2B09F484CF0E947F0259
:1007C0008090480390904903A0904A03B0904B0357
:1007D0006C197D098E099F0986169706A806B90629
:1007E00008F070CF809147030E94290385E01092A2
:1007F0004D0310926F0310924C03DF91CF911F9124
:100800000F91FF90EF90DF90CF90BF90AF909F90AF
:100810008F9008959D9191938F5F69CF85EEA5CFBD
:100820008091480390914903A0914A03B0914B03F2
:10083000892B8A2B8B2B09F49ECF0E947F0200917B
:1008400048031091490320914A0330914B036C19DE
:100850007D098E099F09061717072807390708F031
:100860008ACFC0CF81E0C3CF80E0C1CF82E0BFCFCD
:1008700083E0BDCFCF92DF92EF92FF920F931F9351
:10088000CF93DF93D82FC62F613208F098C00E9413
:100890007F026B017C018091460381116BC081E076
:1008A00080934603809345039FEF909344031092F7
:1008B00043039C0F90934203809321038091210373
:1008C000DD0FD82BD093210380912003813009F0D4
:1008D00078C0109220030E947F026B017C018091FE
:1008E00021038093BB008091480390914903A0911C
:1008F0004A03B0914B03892B8A2B8B2BA1F00E94CA
:100900007F02009148031091490320914A033091DE
:100910004B036C197D098E099F09061717072807D5
:10092000390708F448C08091BC0083FDD8CF85EC1E
:100930008093BC000E947F026B017C018091460382
:10094000813009F440C0809143038C1710F4C091AA
:100950004303E2E2F3E0A0E0B3E080E08C1355C093
:100960008C2FDF91CF911F910F91FF90EF90DF902F
:10097000CF9008958091480390914903A0914A0334
:10098000B0914B03892B8A2B8B2B09F484CF0E94C7
:100990007F02009148031091490320914A0330914E
:1009A0004B036C197D098E099F0906171707280745
:1009B000390708F070CF809147030E942903C0E0F7
:1009C000CFCF85EEB5CF8091480390914903A09198
:1009D0004A03B0914B03892B8A2B8B2B09F4AECFA2
:1009E0000E947F02009148031091490320914A031D
:1009F00030914B036C197D098E099F090617170763
:100A00002807390708F09ACFD6CF91919D938F5F31
:100A1000A5CF0895E091B6028091B502E81730F4B1
:100A2000F0E0E050FD4F808190E008958FEF9FEF60
:100A300008959091B6028091B5022FEF3FEF98177D
:100A400048F4E92FF0E0E050FD4F208130E09F5F57
:100A50009093B602C90108958091B5029091B602B3
:100A6000891B990B0895CF92DF92EF92FF920F931B
:100A70001F93CF93DF937C01CB018A0120914C031C
:100A8000222389F0EB016B01C40ED51ECC15DD05C8
:100A900069F06991D701ED91FC910190F081E02D11
:100AA000C7010995F3CF642F0E94E402C801DF91CA
:100AB000CF911F910F91FF90EF90DF90CF9008950D
:100AC000CF93DF931F92CDB7DEB7698320914C039C
:100AD0002223F9F020916F03203258F021E030E01A
:100AE000FC013383228390E080E00F90DF91CF916F
:100AF000089580914D03E82FF0E0E25BFC4F99816F
:100B000090838F5F80934D0380936F0381E090E02B
:100B1000ECCF61E0CE0101960E94E402F7CF90E0B5
:100B200080E00895FC0110861186128613861482D7
:100B30001582168217821082118212821382148A01
:100B4000158A168A178A108A118A128A138A1486BD
:100B50001586168617860895FC0186819781680F91
:100B6000791F6F3F710551F04CF08FEF90E0978344
:100B700086836681778184810C94230277FD03C08C
:100B800077836683F6CF17821682F3CFCF93C82F71
:100B90008093FD028FE00E94930061E0C11101C0CB
:100BA00060E08FE0CF910C94F501CF93DF93EC01DF
:100BB000842F488359837B836A833D832C830E94DF
:100BC00093008A810E94930070E060E08C810E9413
:100BD000230261E088810E94F50160E08A81DF9153
:100BE000CF910C94F501CF93DF93EC0161E08A8102
:100BF0000E94F50189858CBD8A858DBD7894DF9131
:100C0000CF910895CF93DF93EC01F8948CB5898749
:100C10008DB58A878CB5837F8CBD8CB58F7D8CBD5F
:100C20000E948C0060E08A81DF91CF910C94F501E5
:100C3000F8942091B902233071F4209162022223AA
:100C400051F0DC01ED91FC910488F589E02D61E023
:100C5000099581E008952091B902233019F4789420
:100C600080E00895DC01ED91FC910288F389E02D8C
:100C70000995F6CF3F924F925F926F927F928F923B
:100C80009F92AF92BF92CF92DF92EF92FF920F931B
:100C90001F93CF93DF93EC01162F5A01922E802ED3
:100CA000312CCE2CD12CF12CE12CE881F981019052
:100CB000F081E02D01E0292DA501612FCE010995DC
:100CC0000E94A4022B013C010E94A4026419750930
:100CD000860997096C157D058E059F0528F5E88125
:100CE000F9810480F581E02DCE010995882361F317
:100CF0009091FC02191711F01F3F31F7909161029A
:100D0000992311F3DF91CF911F910F91FF90EF90F5
:100D1000DF90CF90BF90AF909F908F907F906F901B
:100D20005F904F903F9008953394831408F0BDCFA7
:100D300080E0E8CF8EBD00000DB407FEFDCF8EB57C
:100D400008950F931F93CF93DF93EC01062F142F79
:100D50008881882329F0813021F180E090E01CC057
:100D6000898191E090934C0380936E0310924D0320
:100D700010926F038DE094E00E946005612F8DE07A
:100D800094E00E94600581E00E944A0321E090E027
:100D9000811101C020E0822FDF91CF911F910F912F
:100DA000089560E08A810E94F501802F0E949A06D2
:100DB000812F0E949A0661E08A810E94F501CDCFC1
:100DC0000F931F93CF93DF93EC01062F142FE8812D
:100DD000F981008CF18DE02D0995802F80680E94AB
:100DE0009A06812F0E949A06E881F981028CF38D80
:100DF000E02DCE01DF91CF911F910F9109941F93A8
:100E0000CF93DF93EC01162F45E561114DE56AE5BF
:100E1000CE010E94E00640E711114CE76CE5CE01DF
:100E2000DF91CF911F910C94E0061F93CF93DF9336
:100E3000EC01162FE881F981008CF18DE02D0995E8
:100E4000812F0E949A0680E00E949A06182FE8815E
:100E5000F981028CF38DE02DCE010995812FDF9170
:100E6000CF911F910895CF93DF93EC0168874AE1FA
:100E700061114FE063E1CE010E94E006888588237E
:100E800069F061E1CE010E9415078F71482F40661D
:100E900061E1CE01DF91CF910C94E0064F81406873
:100EA000F7CFCF93DF93EC011092FB021092FC027C
:100EB0001092BA02109262021092BB02109261026A
:100EC0001092BD021092BC0268E20E94150782FFD8
:100ED0000AC06DE3CE010E941507482F44606DE300
:100EE000CE010E94E00640E465E2CE010E94E006E9
:100EF000E881F9810488F589E02D63E0CE01DF9176
:100F0000CF910994CF93DF93EC01603208F06FE149
:100F10006F838885882311F066956F8361E1CE0128
:100F20000E941507807E4F81482B61E1CE01DF9141
:100F3000CF910C94E0061F93CF93DF932091B902D9
:100F4000261761F0162FEC01623009F445C050F409
:100F5000662309F453C0613009F449C0DF91CF9191
:100F60001F910895633021F16430C1F761E00E9460
:100F70001507837E482F4C6061E0CE010E94E00699
:100F80008885882341F0E881F9810688F789E02D7A
:100F900061E0CE0109958091B902811106C067E236
:100FA000CE010E94150787FFF6CF1093B902D6CF66
:100FB00061E00E941507837E482F406161E0CE0109
:100FC0000E94E0068885882331F3E881F98106884C
:100FD000F789E02D60E0DDCF61E00E941507837E98
:100FE000482F486061E0CE010E94E006D4CF61E066
:100FF0000E941507837E482F4460F4CF61E00E9471
:101000001507482F437EEECFCF92DF92EF92FF92EB
:101010000F931F93CF93DF93EC01F62ED42EC52EA2
:10102000122FE881F9810488F589E02D61E00995A6
:1010300067E2CE010E94150787FFFACF40E065E224
:10104000CE010E94E0061E3308F01DE3E11027C028
:10105000002339F100E4E881F981008CF18DE02D65
:10106000CE01099580E80E949A0683E0810F0E94D4
:101070009A068F2D0E949A068D810E949A06802FD3
:101080000E949A060D2DED2CFC2C8E2D801B8117B5
:1010900050F4F70181917F010E949A06F6CF00E893
:1010A000DACF00E0D8CFE881F981028CF38DE02D12
:1010B000CE010995E881F9810488F589E02D64E085
:1010C000CE0109950E94A4026B017C012B8130E0C6
:1010D000F901EE58FF4F8491F901E255FF4F149149
:1010E000F901E656FF4F049101111BC00E94A402B2
:1010F0006C197D098E099F09683E73408105910531
:1011000028F3E881F9810488F589E02D61E0CE01BA
:10111000DF91CF911F910F91FF90EF90DF90CF90D3
:10112000099481110E94CC01E02FF0E0EE0FFF1F27
:10113000E859FF4FA591B491EC911E23B9F2E1CF8C
:101140000895FC0101900020E9F73197AF01481B99
:10115000590BBC0180E793E00C94BF008F929F92E3
:10116000AF92BF920F931F93CF93DF93CDB7DEB7AC
:10117000A1970FB6F894DEBF0FBECDBF19A24230C3
:1011800008F44AE08E010F5D1F4F842E912CB12C84
:10119000A12CA50194010E943418E62FB901CA01BF
:1011A000EA30F4F4E05DD801EE938D01232B242B7B
:1011B000252B79F790E080E0109719F0CD010E947F
:1011C000A108A1960FB6F894DEBF0FBECDBFDF9188
:1011D000CF911F910F91BF90AF909F908F900895E6
:1011E000E95CE1CFCF93DF930E94A108EC018EE48C
:1011F00091E00E94A1088C0F9D1FDF91CF9108956F
:10120000CF92DF92EF92FF92CF93DF9397FF1BC0B5
:101210006B017C016DE280E793E00E945F01EC01CD
:1012200066277727CB016C197D098E099F094AE053
:101230000E94AE088C0F9D1FDF91CF91FF90EF9021
:10124000DF90CF9008954AE0DF91CF91FF90EF902B
:10125000DF90CF900C94AE08CF93DF930E940009EB
:10126000EC018EE491E00E94A1088C0F9D1FDF919C
:10127000CF910895CF92DF92EF92FF921F93CF9379
:10128000DF937C016B01C42FFC018081882389F0EE
:101290008130D9F1D0E0C0E010E0F60110838D2F4D
:1012A0009C2FDF91CF911F91FF90EF90DF90CF9017
:1012B0000895818191E090934C0380936E03109286
:1012C0004D0310926F03642F8DE094E00E9460053F
:1012D00081E00E944A03D1E0C0E0811101C0D0E06A
:1012E00061E0F70181810E943A04F82E1092B60263
:1012F0008093B50210E08091B602F81671F28DE08D
:1013000094E00E941905182FF6CF60E082810E94B8
:10131000F5018C2F80680E949A0680E00E949A0650
:10132000182F61E0F70182810E94F501D5E01F3F8F
:1013300009F0D0E0C0E0B1CFCF92DF92EF92FF9200
:101340000F931F93CF93DF9300D0CDB7DEB77C010F
:101350006B01142FFC018081882329F08130A1F1D9
:1013600010E000E051C0818191E090934C038093A4
:101370006E0310924D0310926F03642F8DE094E082
:101380000E94600581E00E944A0301E010E08111A3
:101390003BC062E0F70181810E943A04182F10924D
:1013A000B6028093B5028823D9F28DE094E00E94C2
:1013B000190589838091B602811791F28DE094E03E
:1013C0000E9419058A83CCCF60E082810E94F501DA
:1013D000812F80680E949A0680E00E949A0611E0A0
:1013E0008F3F09F010E0898380E00E949A068F3FCA
:1013F00009F41F5F8A831230C1F010E000E061E061
:10140000F70182810E94F50189819A81F601918319
:101410008083C8010F900F90DF91CF911F910F91A2
:10142000FF90EF90DF90CF90089505E010E0E7CFB8
:10143000CF93DF932091B902233021F080E0DF9138
:10144000CF910895209162022111F8CFEC0164E25E
:101450000E94150790E09195819591098C349F4FDA
:101460006CF7E881F9810488F589E02D61E0CE010F
:10147000099581E0E4CF4F925F926F927F92AF9295
:10148000BF92CF92DF92EF92FF920F931F93CF9371
:10149000DF93EC015B01F42E1092BB021091FC0271
:1014A000C090BC02D090BD026DE30E941507482F8A
:1014B00044606DE3CE010E94E0060E94A4022B016D
:1014C0003C01CE010E94180A811113C00E94A4029F
:1014D0006419750986099709683E7340810591056D
:1014E00040F4E881F9810480F581E02DCE01099571
:1014F000E8CF1093FC02E881F9810088F189E02DA2
:10150000EE24E39400E02F2DA501612FCE01099573
:10151000D092BD02C092BC02DF91CF911F910F917A
:10152000FF90EF90DF90CF90BF90AF907F906F9043
:101530005F904F9008958F929F92AF92BF92CF92FB
:10154000DF92EF92FF920F931F93CF93DF93EC0103
:10155000162F6A01F22E6DE30E941507482F446092
:101560006DE3CE010E94E0060E94A4024B015C01E3
:10157000CE010E94180A811113C00E94A4026819AA
:1015800079098A099B09683E73408105910540F4F9
:10159000E881F9810480F581E02DCE010995E8CF3D
:1015A000E881F9810088F189E02DE12C2F2DA60139
:1015B000612FCE010995DF91CF911F910F91FF907F
:1015C000EF90DF90CF90BF90AF909F908F90089555
:1015D000EF92FF921F93CF93DF93EC018091B902BA
:1015E000833009F098C068E2CE010E94150782FF9F
:1015F00092C0E881F9810488F589E02D61E0CE018F
:101600000995E881F981008CF18DE02DCE010995D5
:1016100080E00E949A0680E00E949A06809362020F
:1016200080916202833408F046C080916202809308
:10163000620280E00E949A068093BA028E81811134
:1016400009C08091BA029D81981721F08091BA0259
:101650008F3F99F580916202833078F18091620228
:1016600083508093FB0280E00E949A068093FC02E4
:1016700080E00E949A06982F907890936102982FAC
:1016800090749093BB02E881F9810684F785E02D80
:10169000682FCE01099510E08091FB02181710F514
:1016A000E12EF12C80E00E949A06F701E254FD4FF2
:1016B00080831F5FF1CF82E4BACF10926202E8818B
:1016C000F981028CF38DE02DCE010995E881F98135
:1016D0000288F389E02DCE01DF91CF911F91FF9019
:1016E000EF9009948091FB028D3330F4E091FB027E
:1016F000F0E0E254FD4F1082E881F981028CF38D15
:10170000E02DCE010995E881F9810488F589E02D65
:1017100063E0CE01099564E2CE010E94150790E0D6
:10172000919581959109959587959093BD028093A8
:10173000BC02DF91CF911F91FF90EF90089585ED4E
:101740008093BC008091480390914903A0914A0383
:10175000B0914B030796A11DB11D23E0B695A79547
:10176000979587952A95D1F72091BC0024FD03C059
:1017700010924603089540914803509149036091A7
:101780004A0370914B03452B462B472B69F3009777
:10179000A105B10541F025E32A95F1F70000019775
:1017A000A109B109E1CF809147030C9429031F924D
:1017B0000F920FB60F9211242F933F934F935F9385
:1017C0006F937F938F939F93AF93BF93EF93FF9309
:1017D00080E793E00E943D01FF91EF91BF91AF91AF
:1017E0009F918F917F916F915F914F913F912F9139
:1017F0000F900FBE0F901F9018951F920F920FB66B
:101800000F9211242F938F939F93EF93FF93E09167
:101810008003F09181038081E0918603F09187033A
:1018200082FD1BC09081809189038F5F8F7320910F
:101830008A03821741F0E0918903F0E0E059FC4F00
:10184000958F80938903FF91EF919F918F912F91B5
:101850000F900FBE0F901F9018958081F4CF1F92AC
:101860000F920FB60F9211242F933F938F939F9354
:10187000AF93BF938091A9029091AA02A091AB026D
:10188000B091AC023091A80223E0230F2D3758F518
:101890000196A11DB11D2093A8028093A9029093E7
:1018A000AA02A093AB02B093AC028091AD029091DA
:1018B000AE02A091AF02B091B0020196A11DB11D80
:1018C0008093AD029093AE02A093AF02B093B002AA
:1018D000BF91AF919F918F913F912F910F900FBE2C
:1018E0000F901F90189526E8230F0296A11DB11D99
:1018F000D2CF1F920F920FB60F9211242F933F93C6
:101900004F935F936F937F938F939F93AF93BF9307
:10191000EF93FF93E0910201F09103010995FF918C
:10192000EF91BF91AF919F918F917F916F915F9157
:101930004F913F912F910F900FBE0F901F901895D0
:101940001F920F920FB60F9211242F933F934F9334
:101950005F936F937F938F939F93AF93BF93EF9317
:10196000FF93E0910001F09101010995FF91EF9142
:10197000BF91AF919F918F917F916F915F914F91A7
:101980003F912F910F900FBE0F901F9018951F92AF
:101990000F920FB60F9211242F933F934F935F93A3
:1019A0006F937F938F939F93AF93BF93EF93FF9327
:1019B0008091B900887F803609F44AC0F0F58832FA
:1019C00009F4A7C018F5803109F49BC0B8F4882346
:1019D00009F4F9C0883009F494C0FF91EF91BF91E8
:1019E000AF919F918F917F916F915F914F913F91B7
:1019F0002F910F900FBE0F901F901895883109F40A
:101A000088C0803251F78093440314C0803409F4B5
:101A10009DC040F48033B9F38833F9F680934403D2
:101A200085ECB0C0803509F485C0883509F496C0CE
:101A3000883499F60E949F0BD0CF883909F48CC066
:101A400038F5883729F050F4883611F0803729F6B8
:101A500083E0809346031092A60257C0883809F4A9
:101A60007BC0803919F0803809F0B7CF8091A60289
:101A7000803208F071C0E091A60281E08E0F809361
:101A8000A6028091BB00F0E0EA57FD4F80833DC085
:101A9000803B39F0E0F4803A09F479C0883A09F0E3
:101AA0009CCF84E0809346031092850210928402BA
:101AB000E091B302F091B402099580918402811102
:101AC0000FC081E0809384021092640209C0803CC0
:101AD00009F4A6CF883C09F4A3CF883B09F07DCF59
:101AE000E091850281E08E0F80938502F0E0EC5951
:101AF000FD4F80818093BB0090918502809184028C
:101B000029C0809121038093BB0085EC8093BC00A9
:101B100064CF9091430380914203981758F5E09168
:101B2000430381E08E0F80934303F0E0EE5DFC4FB2
:101B30008081E9CFE091430381E08E0F80934303DE
:101B40008091BB00F0E0EE5DFC4F808390914303F9
:101B5000809142039817C8F285E8D8CFE0914303FB
:101B600081E08E0F809343038091BB00F0E0EE5D37
:101B7000FC4F80838091450381115CCF81E080938D
:101B8000200384EA8093BC001092460326CF85ECA4
:101B90008093BC00109246038091A602803230F4FC
:101BA000E091A602F0E0EA57FD4F10826091A60294
:101BB00070E0E091B102F091B20286E892E00995FE
:101BC0001092A6020ACF1092440334CFE0E7F3E06C
:101BD0001382128288EE93E0A0E0B0E084839583C4
:101BE000A683B7832EE231E03183208325EC30E0F9
:101BF0003587248724EC30E03787268720EC30E0D7
:101C0000318B208B21EC30E0338B228B22EC30E0C7
:101C1000358B248B26EC30E0378B268B118E128E81
:101C2000138E148EEDE0F4E0138212828483958388
:101C3000A683B78380E491E0918380830895CF9356
:101C4000DF93CDB7DEB7E9970FB6F894DEBF0FBECE
:101C5000CDBF789484B5826084BD84B5816084BD35
:101C600085B5826085BD85B5816085BD80916E003A
:101C7000816080936E00109281008091810082606B
:101C800080938100809181008160809381008091A8
:101C900080008160809380008091B1008460809397
:101CA000B1008091B00081608093B00080917A0093
:101CB000846080937A0080917A00826080937A00B9
:101CC00080917A00816080937A0080917A008068A8
:101CD00080937A001092C100E0918003F09181031B
:101CE00082E08083E0917C03F0917D031082E0919B
:101CF0007E03F0917F0387E6808310928803E09152
:101D00008403F091850386E08083E0918203F09163
:101D10008303808180618083E0918203F09183035B
:101D2000808188608083E0918203F09183038081C9
:101D300080688083E0918203F091830380818F7DAE
:101D400080838CE290E00E945C187C01DC0111969B
:101D50001C921E9213961C921E92129715961C921C
:101D60001E92149717961C921E92169719961C9203
:101D70001E9218971B961C921E921A970C960E9400
:101D8000920581E591E00E94F20880E00E94C6057C
:101D900081E290E00E945C188C018BE6F80181835F
:101DA0008AE08283108281E0838320ED37E03583EF
:101DB000248320EA31E03783268340E951E05187CC
:101DC0004087828783878487858740E150E05787F3
:101DD0004687318B208B24E630E0338B228B848B3B
:101DE000858B868B878B88EB9BE0918F808F8AE039
:101DF00090E0938F828F148E168E158E10A2178E00
:101E0000D7010D931C9318AA1092B6021092B50236
:101E100010924D0310926F030E940B038DEB90E024
:101E20009093B4028093B3028EEB90E09093B20251
:101E30008093B1021FA680E197E22FA52F5F2FA705
:101E40000197D9F74FE0BE016F5F7F4FC8010E9435
:101E50003A09D98018AAF8012485213009F07AC0FE
:101E6000828993898436910521F138F4C297F1F083
:101E700080E9D8011C968C9306C0883C9105D9F066
:101E800080399140A9F788A9F80126853785243043
:101E90003105D9F090F422303105C9F020E130E06D
:101EA000D8011F963C932E931E970DC083E088ABFC
:101EB000EACF82E0FCCF28ABE6CF2830310521F114
:101EC0002031310559F7846001C0886088AB88A94A
:101ED000F80120893189203AF1E03F0709F473C005
:101EE000E8F42433310509F46CC080F42D30310559
:101EF00079F12A31310509F462C028E630E0F801B1
:101F0000318B208B806425C08C60E0CF2836310572
:101F1000C9F3203D310589F780651BC02230ADE053
:101F20003A0709F454C050F42134E3E03E0709F4C1
:101F30004CC02C37364009F780680BC024309AE13A
:101F4000390709F446C022313443B9F6806B01C029
:101F5000806188AB48A960E1C8010E94A10643E105
:101F6000BE01605D7F4FC8010E943A0988A98F7742
:101F700088ABD8011D969C91913011F4806888AB94
:101F800048A963E1C8010E94A10618AAF80183814B
:101F9000813009F045C084819581843FF1E09F073D
:101FA00009F40FC1C0F48D379105F9F0853F910513
:101FB000F1F080ED97E0F8019583848314C080628E
:101FC000C8CF8063C6CF8066C4CF8067C2CF806928
:101FD000C0CF806ABECF883E33E0930709F4F3C0D8
:101FE000803D974031F78CE001C082E088AB88A942
:101FF000D80116962D913C912836310509F4F4C08C
:1020000008F0E3C02A31310509F4F9C02433310561
:1020100009F4F7C02D30310509F0DFC0806188ABCD
:1020200048A961E1C8010E94A1064FE0BE016F5FAF
:102030007F4FC8010E943A09B9E686E791E0DB16B6
:1020400011F084E991E00E94F2088BE090E00E9498
:102050005C188C018EE091E0F801918380838AE026
:10206000828382E08383148291E09093B902168286
:102070002FE127831086FE0133962CE2DF011D92AB
:102080002A95E9F7998324E02A838B8393E09D8343
:102090008E832F8320E4288785E089879A8786E0CE
:1020A0008B8783E38C8787E08D8798E09F8799E013
:1020B000998B99E19B8B92E49C8B35E23D8B2E8B27
:1020C00026E22F8B888F88E2898F80E18A8F89E2D0
:1020D0008B8F8CED8C8F8EE28D8F88E88E8F8FE2C8
:1020E0008F8F8DE288A380E389A327E32BA320E9C8
:1020F0002CA328E32DA39EA39CE39FA39FE898A76E
:102100009DE399A792E19AA79FE69BA78CA78FEFE3
:102110008DA784EE8E8780EC888B8EE18AA361E0A8
:102120008AE00E94F501F80182810E9493000E94DA
:10213000B1020E94A4024B015C014AEA6FE2C801AD
:102140000E94E0066FE2C8010E9415078A3A59F022
:102150000E94A402681979098A099B0962337105F2
:102160008105910550F30E94A4024B015C0145E5F5
:102170006FE2C8010E94E0066FE2C8010E941507E5
:10218000853559F00E94A402681979098A099B09CA
:10219000623371058105910550F3D12CED2DF0E0EE
:1021A000EE0FFF1F21E030E02C0F3D1FE20FF31F69
:1021B00060816F3F71F14181C8010E94E006D394B4
:1021C000EDCF84E013CF88E011CF203AB1E03B0798
:1021D000E1F060F4203D3105B1F028E630E0D801AF
:1021E00017963C932E931697806419CF2134F3E011
:1021F0003F0769F02C37364081F7806810CF806246
:102200000ECF80630CCF80650ACF806608CF8067D1
:1022100006CFD801ED91FC910488F589E02D61E0AD
:10222000C80109956DE3C8010E941507482F4E7F2C
:102230006DE3C8010E94E006F8016085C8010E94B4
:10224000330761E0C8010E949B070E94A4024B0172
:102250005C0167E2C8010E94150787FD0BC00E9460
:10226000A402681979098A099B09623371058105FD
:10227000910578F30E94A402681979098A099B09DB
:102280006233710581059105F8F4D80114968C919B
:10229000823098F4E82FF0E0EE0FFF1FE050FF4F80
:1022A00022EB30E031832083813009F4DDC280915C
:1022B0006900836080936900E89A1093B8020093E4
:1022C000B70281E0F801858361E0C8010E9433070D
:1022D0008EEA91E00E94A10861E070E080E090E069
:1022E0000E94000989E791E00E94F208D7011B963D
:1022F0001C930E931A9788E090E00E945C188C0162
:1023000023E030E048E050E06EE070E00E94D50548
:10231000F7011383028388E090E00E945C188C012F
:1023200025E030E044E050E067E070E00E94D50531
:10233000D70119961C930E93189788E090E00E949D
:102340005C188C0126E030E048E050E06EE070E080
:102350000E94D505F7011783068388E090E00E946C
:102360005C188C0129E030E044E050E067E070E068
:102370000E94D505D70115961C930E93149781E002
:102380000E94C6058091FD02882321F085EB91E033
:102390000E94F208F092FF02E092FE0280ED91E0CE
:1023A0000E94F2080091FE021091FF02F801E284FF
:1023B000F384C7010E94180681115DC28BED91E084
:1023C0000E94F208CE0101960E94920580E2FE0171
:1023D0003196D8011C9601900D928A95E1F72090D4
:1023E000FE023090FF02F1010081118148E2BE013E
:1023F0006F5F7F4FC8010E949C09009769F00597A5
:1024000009F095C3D8015D968D919C915E970196D8
:102410005E969C938E935D97E980FA80D8011E9614
:102420006D917C917695679590E080E00E94FC1616
:102430002B013C01B701FF0C880B990B0E94FE1683
:1024400023E23BED49E75DE30E94B3179B01AC013A
:10245000C301B2010E94B31720E030E04AE754E420
:102460000E9454166B017C014AE2BE016F5F7F4FF0
:10247000C8010E949C09009749F0059709F05EC3C6
:10248000F801858D968D0196968F858FA980BA80EB
:10249000F801668577857695679590E080E00E94E3
:1024A000FC162B013C01B501BB0C880B990B0E945B
:1024B000FE1623E23BED49E75DE30E94B3179B0163
:1024C000AC01C301B2010E94B31720E030E04AE73B
:1024D00054E40E9454164B015C014CE2BE016F5F54
:1024E0007F4FC8010E949C09009769F0059709F089
:1024F00030C3D8015D968D919C915E9701965E9652
:102500009C938E935D9729813A813AAB29ABD80190
:102510001E966D917C917695679590E080E00E9483
:10252000FC162B013C01E9A9FAA9BF01FF0F880B9A
:10253000990B0E94FE1623E23BED49E75DE30E9402
:10254000B3179B01AC01C301B2010E94B31720E095
:1025500030E04AE754E40E9454162B013C0142E269
:10256000BE016F5F7F4FC8010E949C09009769F010
:10257000059709F0F5C2D8015D968D919C915E9703
:1025800001965E969C938E935D9729813A813DAB2F
:102590002CABD80114968D919C91853F910509F43F
:1025A000E6C26DE770E00E94201869AB44E2BE010C
:1025B0006F5F7F4FC8010E949C09009749F0059703
:1025C00009F0D8C2F801858D968D0196968F858F7A
:1025D000E981FA81FFABEEABD80114968D919C9105
:1025E000853F910509F4D1C26DE770E00E94201883
:1025F0006BAB46E2BE016F5F7F4FC8010E949C0932
:10260000009749F0059709F0C3C2F801858D968DB2
:102610000196968F858FE981FA81F9AFE8AFD801ED
:1026200014968D919C9112E0853F910529F06DE7FC
:1026300070E00E942018162F8BE392E00E94A10800
:1026400020E030E0A901C701B6010E94AE1720E0EA
:1026500030E040E05FE387FDA6C2C701B6010E94FB
:10266000E3150E94C6160E942C0981E492E00E94A4
:10267000A10820E030E0A901C501B4010E94AE1715
:1026800020E030E040E05FE387FD92C2C501B40185
:102690000E94E3150E94C6160E942C0987E492E06E
:1026A0000E94A10820E030E0A901C301B2010E940C
:1026B000AE1720E030E040E05FE387FD7EC2C3015B
:1026C000B2010E94E3150E94C6160E942C098EE4F6
:1026D00091E00E94A108A7019601F101648575852A
:1026E000868597850E944F168111A9C0A501940186
:1026F000D10150966D917D918D919C9153970E943F
:102700004F1681119CC020E030E0A901F1016489DD
:102710007589868997890E944F16882309F48FC08E
:102720002CA93DA9B901330F880B990B0E94FE1605
:1027300020E030E04CE850E40E94B3176B017C01CC
:1027400039A9632F70E090E080E00E94FE169B01A3
:10275000AC01C701B6010E94B31720E030E04AE7A0
:1027600054E40E9454169B01AC01D10158966D911E
:102770007D918D919C915B970E944F1681115FC056
:10278000EEA9FFA9BF01FF0F880B990B0E94FE164F
:1027900020E030E04CE850E40E94B3176B017C016C
:1027A000FBA96F2F70E090E080E00E94FE169B0175
:1027B000AC01C701B6010E94B31720E030E04AE740
:1027C00054E40E9454169B01AC01D1015C966D91BA
:1027D0007D918D919C915F970E944F1681112FC022
:1027E000E8ADF9ADBF01FF0F880B990B0E94FE16F3
:1027F00020E030E04CE850E40E94B3176B017C010C
:10280000612F70E090E080E00E94FE169B01AC0119
:10281000C701B6010E94B31720E030E04AE754E454
:102820000E9454169B01AC01D10190966D917D914F
:102830008D919C9193970E944F16882341F080912F
:10284000FD02882321F08DE492E00E94F208E0E08E
:10285000F0E0EF2B09F4A2CD0E942901882309F4AE
:102860009DCD0E9400009ACD809169008C6080937C
:102870006900E99A22CD82EF91E00E94A10860915F
:10288000FC0270E090E080E04AE00E94AE0886E042
:1028900092E00E94A108D12C8091FB02D81658F436
:1028A000ED2DF0E0E254FD4F608180E793E00E945F
:1028B0005F01D394F1CF82E192E00E94A108609180
:1028C000BC027091BD02072E000C880B990B0E9470
:1028D00000098EE491E00E94A1088091BB02882348
:1028E00071F08091BA028F3F51F040E060E571E0F5
:1028F000C7010E943B0A8BE192E00E94F208EEEBD6
:10290000F2E0AF014E5B524081918111FACFEEEBC4
:10291000F2E090E080E09F012E5B32402417350703
:1029200034F42191820F911D27FD9A95F4CF883BB5
:10293000F1E09F0709F46DC06CF4853E910509F440
:1029400094C08B3A914009F4B7C084E292E00E94AF
:10295000F20845CD8038A2E09A0709F446C0853FC9
:10296000B2E09B0709F43BCD8E31924071F7CE0166
:1029700001960E94920580E2FE013196D8011C96D4
:1029800001900D928A95E1F7D8011296ED91FC9194
:102990001782168270E060E084810E942302D801D1
:1029A0001496ED91FC912FE730E0378326836FE793
:1029B00070E084810E942302D8011696ED91FC916B
:1029C0001782168270E060E084810E942302D801A1
:1029D0001896ED91FC912FE730E0378326836FE75F
:1029E00070E084810E942302FACCCE0101960E94FD
:1029F000920580E2FE013196D8011C9601900D925D
:102A00008A95E1F78091FD02F1E08F270E94C605CB
:102A1000E6CCCE0101960E94920580E2FE0131963D
:102A2000D8011C9601900D928A95E1F76BEF7FEF2C
:102A3000D80112968D919C910E94AC056BEF7FEFAF
:102A4000F801848195810E94AC056BEF7FEFD8017E
:102A500016968D919C910E94AC056BEF7FEFF8016B
:102A6000808591850E94AC05BACCCE0101960E946A
:102A7000920580E2FE013196D8011C9601900D92DC
:102A80008A95E1F765E070E0D80112968D919C91EE
:102A90000E94AC0565E070E0F801848195810E9498
:102AA000AC0565E070E0D80116968D919C910E946E
:102AB000AC0565E070E0D3CFCE0101960E9492058F
:102AC00080E2FE013196D8011C9601900D928A9504
:102AD000E1F7D8011296ED91FC912FE730E03783B2
:102AE00026836FE770E084810E942302D801149648
:102AF000ED91FC911782168270E060E084810E9463
:102B00002302D8011696ED91FC912FE730E0378330
:102B100026836FE770E084810E942302D801189613
:102B2000ED91FC911782168270E060E05ACFF801B7
:102B3000878D90A1019690A3878F6ECCD8015F9668
:102B40008D919C919097019690969C938E935F9710
:102B50009DCCF801878D90A1019690A3878FD3CC4F
:102B6000F801878D90A1019690A3878F0ECDB2E0DA
:102B7000B9AB1CCDD8015F968D919C919097019631
:102B800090969C938E935F9723CDB2E0BBAB31CDF3
:102B9000D8015F968D919C919097019690969C9309
:102BA0008E935F9738CDC701B6010E94E21559CDCB
:102BB000C501B4010E94E2156DCDC301B2010E94AE
:102BC000E21581CD5058BB27AA270E94FA150C9414
:102BD00074170E94661738F00E946D1720F039F4C0
:102BE0009F3F19F426F40C9463170EF4E095E7FB6D
:102BF0000C945D17E92F0E94851758F3BA176207E6
:102C000073078407950720F079F4A6F50C94A717AD
:102C10000EF4E0950B2EBA2FA02D0B01B9019001F7
:102C20000C01CA01A0011124FF27591B99F0593F3B
:102C300050F4503E68F11A16F040A22F232F342F83
:102C40004427585FF3CF469537952795A795F040D1
:102C50005395C9F77EF41F16BA0B620B730B840BE6
:102C6000BAF09150A1F0FF0FBB1F661F771F881F9E
:102C7000C2F70EC0BA0F621F731F841F48F48795F6
:102C800077956795B795F7959E3F08F0B0CF9395E8
:102C9000880F08F09927EE0F9795879508950E9461
:102CA000391708F481E008950E9468160C9474178F
:102CB0000E946D1758F00E94661740F029F45F3F9C
:102CC00029F00C945D1751110C94A8170C946317FC
:102CD0000E94851768F39923B1F3552391F3951B4F
:102CE000550BBB27AA2762177307840738F09F5F2D
:102CF0005F4F220F331F441FAA1FA9F335D00E2E9A
:102D00003AF0E0E832D091505040E695001CCAF706
:102D10002BD0FE2F29D0660F771F881FBB1F2617C9
:102D200037074807AB07B0E809F0BB0B802DBF01A0
:102D3000FF2793585F4F3AF09E3F510578F00C946F
:102D40005D170C94A8175F3FE4F3983ED4F3869583
:102D500077956795B795F7959F5FC9F7880F911D90
:102D60009695879597F90895E1E0660F771F881F7C
:102D7000BB1F621773078407BA0720F0621B730B2F
:102D8000840BBA0BEE1F88F7E09508950E94CD16CC
:102D90006894B1110C94A81708950E948D1788F0BB
:102DA0009F5798F0B92F9927B751B0F0E1F0660F0F
:102DB000771F881F991F1AF0BA95C9F714C0B13050
:102DC00091F00E94A717B1E008950C94A717672F00
:102DD000782F8827B85F39F0B93FCCF3869577957F
:102DE0006795B395D9F73EF4909580957095619568
:102DF0007F4F8F4F9F4F0895E89409C097FB3EF493
:102E000090958095709561957F4F8F4F9F4F992337
:102E1000A9F0F92F96E9BB279395F69587957795B5
:102E20006795B795F111F8CFFAF4BB0F11F460FF75
:102E30001BC06F5F7F4F8F4F9F4F16C0882311F0CD
:102E400096E911C0772321F09EE8872F762F05C0E1
:102E5000662371F096E8862F70E060E02AF09A957C
:102E6000660F771F881FDAF7880F9695879597F971
:102E70000895990F0008550FAA0BE0E8FEEF16160B
:102E80001706E807F907C0F012161306E407F5075E
:102E900098F0621B730B840B950B39F40A2661F0D2
:102EA000232B242B252B21F408950A2609F4A14075
:102EB000A6958FEF811D811D089597F99F6780E882
:102EC00070E060E008959FEF80EC089500240A947C
:102ED0001616170618060906089500240A941216F5
:102EE0001306140605060895092E0394000C11F428
:102EF000882352F0BB0F40F4BF2B11F460FF04C0D5
:102F00006F5F7F4F8F4F9F4F089557FD9058440F2D
:102F1000551F59F05F3F71F04795880F97FB991F38
:102F200061F09F3F79F087950895121613061406F5
:102F3000551FF2CF4695F1DF08C016161706180682
:102F4000991FF1CF86957105610508940895E8945D
:102F5000BB2766277727CB0197F908950E94391779
:102F600008F48FEF08950E94C6170C9474170E94FE
:102F7000661738F00E946D1720F0952311F00C941D
:102F80005D170C94631711240C94A8170E948517E1
:102F900070F3959FC1F3950F50E0551F629FF001AC
:102FA000729FBB27F00DB11D639FAA27F00DB11DC5
:102FB000AA1F649F6627B00DA11D661F829F22274E
:102FC000B00DA11D621F739FB00DA11D621F839FD5
:102FD000A00D611D221F749F3327A00D611D231FAB
:102FE000849F600D211D822F762F6A2F11249F57F9
:102FF00050409AF0F1F088234AF0EE0FFF1FBB1FFC
:10300000661F771F881F91505040A9F79E3F5105BA
:1030100080F00C945D170C94A8175F3FE4F3983E82
:10302000D4F3869577956795B795F795E7959F5F64
:10303000C1F7FE2B880F911D9695879597F90895F6
:10304000AA1BBB1B51E107C0AA1FBB1FA617B707CE
:1030500010F0A61BB70B881F991F5A95A9F78095EA
:103060009095BC01CD010895A1E21A2EAA1BBB1BAD
:10307000FD010DC0AA1FBB1FEE1FFF1FA217B30744
:10308000E407F50720F0A21BB30BE40BF50B661F5A
:10309000771F881F991F1A9469F76095709580951E
:1030A00090959B01AC01BD01CF010895EE0FFF1F6C
:1030B0000590F491E02D09940F931F93CF93DF9324
:1030C0008230910510F482E090E0E0911B04F091D1
:1030D0001C0430E020E0B0E0A0E0309799F4211526
:1030E000310509F44AC0281B390B24303105D8F5C5
:1030F0008A819B816115710589F1FB01938382832C
:10310000FE0111C040815181028113814817590786
:10311000E0F04817590799F4109761F012960C9354
:10312000129713961C933296CF01DF91CF911F9186
:103130000F91089500931B0410931C04F4CF2115E4
:10314000310551F04217530738F0A901DB019A010C
:10315000BD01DF01F801C1CFEF01F9CF90931C044D
:1031600080931B04CDCFFE01E20FF31F8193919357
:103170002250310939832883D7CF20911904309107
:103180001A04232B41F4209106013091070130935A
:103190001A0420931904209104013091050121158E
:1031A000310541F42DB73EB7409108015091090116
:1031B000241B350BE0911904F0911A04E217F30770
:1031C000A0F42E1B3F0B2817390778F0AC014E5F97
:1031D0005F4F2417350748F04E0F5F1F50931A04B6
:1031E00040931904819391939FCFF0E0E0E09CCF4E
:1031F000CF93DF930097E9F0FC013297138212829C
:10320000A0911B04B0911C04ED0130E020E0109768
:10321000A1F420813181820F931F209119043091F4
:103220001A042817390709F061C0F0931A04E093D3
:103230001904DF91CF910895EA01CE17DF07E8F571
:103240004A815B819E0141155105B1F7E901FB837C
:10325000EA8349915991C40FD51FEC17FD0761F41A
:10326000808191810296840F951FE901998388835B
:10327000828193819B838A83F0E0E0E012968D91B6
:103280009C9113970097B9F52D913C911197CD0121
:103290000296820F931F2091190430911A04281767
:1032A000390739F6309751F510921C0410921B041F
:1032B000B0931A04A0931904BCCFD383C283408176
:1032C0005181840F951FC817D90761F44E5F5F4F76
:1032D00088819981480F591F518340838A819B813E
:1032E000938382832115310509F0B0CFF0931C043C
:1032F000E0931B049ECFFD01DC01C0CF138212823C
:06330000D7CFF894FFCFC7
:10330600B002B00200001D048000000000009B0A0D
:103316003A0618063B0A33078207E80AA00804089B
:1033260051079B07FF060206F305000000005F0138
:10333600BF00EC00AC011D01FB000F010000000006
:10334600600533058F0509052C0519050A050D0AC3
:1033560000496E697469616C697A696E6720466CAA
:1033660069676874436F6E74726F6C2053797374F7
:10337600656D2E2E2E00494D55207375636365735A
:103386007366756C6C7920696E697469616C697AAB
:1033960065642100494D55206661696C6564207439
:1033A6006F20696E697469616C697A652E00526175
:1033B60064696F2D004D6F746F72732061726520A2
:1033C600757020616E642072756E6E696E6721007D
:1033D6006C6F6F70696E672E2E2E004E6F206D65B6
:1033E60073736167652064657465637465642E2E06
:1033F6002E0072656365697665642066726F6D205E
:103406006E6F646520002C206D657373616765209F
:103416005B005D2C2052535349200041434B2073DF
:10342600656E74004552524F523A20436F646520D0
:103436006E6F7420666F756E642E00612E583A208A
:1034460000612E593A2000612E5A3A2000666C69B6
:103456006768742061646A757374696E6721000019
:107800000C94343C0C94513C0C94513C0C94513CE1
:107810000C94513C0C94513C0C94513C0C94513CB4
:107820000C94513C0C94513C0C94513C0C94513CA4
:107830000C94513C0C94513C0C94513C0C94513C94
:107840000C94513C0C94513C0C94513C0C94513C84
:107850000C94513C0C94513C0C94513C0C94513C74
:107860000C94513C0C94513C11241FBECFEFD8E036
:10787000DEBFCDBF11E0A0E0B1E0ECE9FFE702C060
:1078800005900D92A230B107D9F712E0A2E0B1E065
:1078900001C01D92AD30B107E1F70E942D3D0C945F
:1078A000CC3F0C94003C982F959595959595959582
:1078B000905D8F708A307CF0282F295A8091C0000B
:1078C00085FFFCCF9093C6008091C00085FFFCCF60
:1078D0002093C6000895282F205DF0CF982F809127
:1078E000C00085FFFCCF9093C6000895EF92FF92F1
:1078F0000F931F93EE24FF2487018091C00087FD22
:1079000017C00894E11CF11C011D111D81E4E8164B
:1079100082E4F8068FE0080780E0180770F3E09132
:107920000401F091050109958091C00087FFE9CF1E
:107930008091C6001F910F91FF90EF9008950E94D3
:10794000763C982F8091C00085FFFCCF9093C600B5
:1079500091362CF490330CF09053892F089597555D
:10796000892F08951F930E949F3C182F0E949F3CCF
:107970001295107F810F1F9108951F93182F882350
:1079800021F00E94763C1150E1F71F9108951F935A
:10799000182F0E94763C803249F0809103018F5F5E
:1079A000809303018530C1F01F9108958091C0003C
:1079B00085FFFCCF84E18093C6008091C00085FFE5
:1079C000FCCF1093C6008091C00085FFFCCF80E102
:1079D0008093C6001F910895E0910401F091050184
:1079E00009951F9108950E94763C803241F0809164
:1079F00003018F5F80930301853081F008958091AA
:107A0000C00085FFFCCF84E18093C6008091C00058
:107A100085FFFCCF80E18093C6000895E0910401CA
:107A2000F09105010995089540E951E08823A1F0FE
:107A30002D9A28EE33E0FA013197F1F721503040CA
:107A4000D1F72D9828EE33E0FA013197F1F7215064
:107A50003040D1F7815061F708953F924F925F9285
:107A60006F927F928F929F92AF92BF92CF92DF924E
:107A7000EF92FF920F931F93CF93DF93000080E16B
:107A80008093C4001092C50088E18093C10086E015
:107A90008093C2005098589A259A81E00E94143D24
:107AA00024E1F22E9EE1E92E85E9D82E0FE0C02ECA
:107AB00010E1B12EAA24A394B1E49B2EA6E58A2E50
:107AC000F2E57F2EE0E26E2E79E4572E63E5462E36
:107AD00050E5352E0E94763C8033B1F18133B9F107
:107AE000803409F46FC0813409F476C0823409F41B
:107AF00085C0853409F488C0803531F1823521F1A3
:107B0000813511F1853509F485C0863509F48DC0BC
:107B1000843609F496C0843709F403C1853709F423
:107B200072C1863709F466C0809103018F5F80932C
:107B30000301853079F6E0910401F0910501099582
:107B40000E94763C803351F60E94F33CC3CF0E94E2
:107B5000763C803249F78091C00085FFFCCFF092DF
:107B6000C6008091C00085FFFCCF9092C600809136
:107B7000C00085FFFCCF8092C6008091C00085FFC9
:107B8000FCCF7092C6008091C00085FFFCCF609250
:107B9000C6008091C00085FFFCCF5092C600809146
:107BA000C00085FFFCCF4092C6008091C00085FFD9
:107BB000FCCF3092C6008091C00085FFFCCFB09210
:107BC000C60088CF0E94763C863808F4BDCF0E945C
:107BD000763C0E94F33C7ECF0E94763C803809F4CC
:107BE0009CC0813809F40BC1823809F43CC1883942
:107BF00009F48FC080E00E94C73C6CCF84E10E94F2
:107C0000BD3C0E94F33C66CF85E00E94BD3C0E94D3
:107C1000F33C60CF0E94763C809306010E94763C44
:107C2000809307010E94F33C55CF0E94763C80333D
:107C300009F41DC183E00E94BD3C80E00E94C73C66
:107C400049CF0E94763C809309020E94763C809343
:107C5000080280910C028E7F80930C020E94763C79
:107C6000853409F415C18091080290910902892B8D
:107C700089F000E010E00E94763CF801E85FFE4FDA
:107C800080830F5F1F4F80910802909109020817AF
:107C9000190788F30E94763C803209F045CF809125
:107CA0000C0280FF01C16091060170910701660F0F
:107CB000771F7093070160930601A0910802B091AD
:107CC00009021097C9F0E8E0F1E09B01AD014E0F09
:107CD0005F1FF999FECF32BD21BD819180BDFA9A17
:107CE000F99A2F5F3F4FE417F50799F76A0F7B1F4B
:107CF00070930701609306018091C00085FFFCCF5F
:107D0000F092C6008091C00085FFFCCFB092C60003
:107D1000E1CE83E00E94C73CDDCE82E00E94C73CFA
:107D2000D9CE0E94763C809309020E94763C8093D3
:107D300008028091060190910701880F991F909386
:107D40000701809306010E94763C853409F4A6C0A1
:107D500080910C028E7F80930C020E94763C8032D0
:107D600009F0B8CE8091C00085FFFCCFF092C6002C
:107D7000609108027091090261157105B9F140E046
:107D800050E080910C02A82FA170B82FB27011C0E2
:107D9000BB2309F45CC0E0910601F0910701319624
:107DA000F0930701E09306014F5F5F4F46175707B7
:107DB000E8F4AA2369F3F999FECF209106013091E6
:107DC000070132BD21BDF89A90B58091C00085FFB2
:107DD000FCCF9093C6002F5F3F4F30930701209355
:107DE00006014F5F5F4F4617570718F38091C00099
:107DF00085FDE5CE8091C00085FFF8CFE0CE81E023
:107E00000E94C73C67CE0E94763C803209F08CCE3F
:107E10008091C00085FFFCCFF092C6008091C00029
:107E200085FFFCCFE092C6008091C00085FFFCCFAB
:107E3000D092C6008091C00085FFFCCFC092C600E2
:107E40008091C00085FFFCCFB092C60043CEE09188
:107E50000601F091070194918091C00085FFFCCF4D
:107E60009093C6009CCF80E10E94C73C33CE0E9415
:107E7000763C0E94763C182F0E94763C112309F430
:107E800083C0113009F484C08FE00E94C73C22CE29
:107E900080910C02816080930C02E5CE80910C02EF
:107EA000816080930C0259CF809107018823880F4D
:107EB000880B8A2180930B02809106019091070123
:107EC000880F991F90930701809306018091080203
:107ED00080FF09C080910802909109020196909359
:107EE000090280930802F894F999FECF1127E091D6
:107EF0000601F0910701C8E0D1E08091080290915D
:107F00000902103091F40091570001700130D9F34B
:107F100003E000935700E89500915700017001308D
:107F2000D9F301E100935700E89509901990009169
:107F3000570001700130D9F301E000935700E89534
:107F40001395103498F011270091570001700130FB
:107F5000D9F305E000935700E895009157000170B0
:107F60000130D9F301E100935700E895329602976A
:107F700009F0C7CF103011F00296E5CF112480919F
:107F8000C00085FFB9CEBCCE8EE10E94C73CA2CD19
:0C7F900085E90E94C73C9ECDF894FFCF0D
:027F9C00800063
:040000030000780081
:00000001FF
